:060000000A128A11122809
:10000800FE00030E83120313A3000408A4000A08C9
:10001800A5007F08A6000A128A156B280A128A1101
:10002800152883179A30FD001330FE00ED30FF00CD
:10003800903084000A168A11FB230A128A1183164B
:100048000313E101E201E301E401E501E601E7014F
:10005800E801E901EA0183120313E501E601E7017A
:10006800E801F901FA01FB01FC01FD0183010A1213
:100078008A1504288312031352088039D7005708B9
:1000880083160313A000831203135208D7005707DF
:10009800D800580883160313A60083120313D11F30
:1000A800562857285A288316031326148316031331
:1000B80026080319602861287328260A031D652865
:1000C80066287028003083120313D2000030D10054
:1000D8000030D0000030CF008312D1177D280030C7
:1000E80083120313D2000030D1000030D00000305A
:1000F800CF0056088039D700570883160313A00687
:10010800831203135608D7005707D80058088316D8
:100118000313A10083120313D51F9328942897284B
:1001280083160313211483160313210803199D282A
:100138009E28B028210A031DA228A328AD28003034
:1001480083120313D6000030D5000030D4000030ED
:10015800D3008312D517BA28003083120313D600B0
:100168000030D5000030D4000030D30083160313CC
:1001780021080319C028C128C6282608031DC52838
:10018800C628D128003083120313D2000030D100D2
:100198000030D0000030CF009C2D831203134F088D
:1001A800D7005708A70055080A168A110A240A1208
:1001B8008A1183120313280883160313AC008312D1
:1001C8000313270883160313AB002B0883120313AA
:1001D800D700D801D901DA015A0883160313A500FC
:1001E80083120313590883160313A40083120313FD
:1001F800580883160313A3008312031357088316A2
:100208000313A2002C0883120313D700D801D901C5
:10021800DA015A0883160313AA0083120313590834
:1002280083160313A90083120313580883160313B4
:10023800A80083120313570883160313A700831219
:1002480003135008D7005708A70054080A168A1144
:100258000A240A128A118312031328088316031327
:10026800AC0083120313270883160313AB002B0873
:1002780083120313D700D801D901DA01570883166E
:100288000313A20783120313580803110318013E2E
:100298000319512983160313A3078312031359085B
:1002A80003110318013E03195C2983160313A407DD
:1002B800831203135A0803110318013E031967290F
:1002C80083160313A50783120313831603132C083D
:1002D80083120313D700D801D901DA01570883160E
:1002E8000313A70783120313580803110318013EC9
:1002F8000319812983160313A807831203135908C6
:1003080003110318013E03198C2983160313A90747
:10031800831203135A0803110318013E031997297E
:1003280083160313AA078312031383160313831276
:1003380003135108D7005708A70053080A168A1153
:100348000A240A128A118312031328088316031336
:10035800AC0083120313270883160313AB002B0882
:1003680083120313D700D801D901DA01570883167D
:100378000313A20783120313580803110318013E3D
:100388000319C92983160313A307831203135908F2
:1003980003110318013E0319D42983160313A40774
:1003A800831203135A0803110318013E0319DF29A6
:1003B80083160313A50783120313831603132C084C
:1003C80083120313D700D801D901DA01570883161D
:1003D8000313A70783120313580803110318013ED8
:1003E8000319F92983160313A8078312031359085D
:1003F80003110318013E0319042A83160313A907DE
:10040800831203135A0803110318013E03190F2A14
:1004180083160313AA0783120313831603130830E2
:1004280083120313D700031083160313A20DA30D21
:10043800A40DA50D83120313D70B172A5008D70054
:100448005708A70053080A168A110A240A128A11A3
:1004580083120313280883160313AC0083120313B3
:10046800270883160313AB002B0883120313D70046
:10047800831603132C0883120313D800D901DA0159
:10048800570883160313A20783120313580803118E
:100498000318013E0319532A83160313A307831273
:1004A8000313590803110318013E03195E2A831622
:1004B8000313A407831203135A0803110318013EF8
:1004C8000319692A83160313A507831203138316D6
:1004D8000313831203134F08D7005708A7005408C3
:1004E8000A168A110A240A128A1183120313280889
:1004F80083160313AC008312031327088316031310
:10050800AB002B0883120313D700831603132C08A0
:1005180083120313D800D901DA015708831603138D
:10052800A20783120313580803110318013E031985
:10053800A02A83160313A307831203135908031170
:100548000318013E0319AB2A83160313A407831269
:1005580003135A0803110318013E0319B62A831618
:100568000313A5078312031383160313083083129A
:100578000313D700031083160313A20DA30DA40DB4
:10058800A50D83120313D70BBE2A4F08D7005708AF
:10059800A70053080A168A110A240A128A1183121C
:1005A8000313280883160313AC00831203132708C8
:1005B80083160313AB002B0883120313D70083168B
:1005C80003132C0883120313D800D901DA01570842
:1005D80083160313A2078312031358080311031881
:1005E800013E0319FA2A83160313A3078312031380
:1005F800590803110318013E0319052B8316031329
:10060800A407831203135A0803110318013E0319A0
:10061800102B83160313A5078312031383160313E2
:10062800831203135008D7005708A70055080A1665
:100638008A110A240A128A118312031328088316BE
:100648000313AC0083120313270883160313AB00AC
:100658002B0883120313D700831603132C08831265
:100668000313D800D901DA01570883160313A70723
:1006780083120313580803110318013E0319472B6B
:1006880083160313A80783120313590803110318C9
:10069800013E0319522B83160313A9078312031370
:1006A8005A0803110318013E03195D2B831603131F
:1006B800AA07831203138316031383120313510823
:1006C800D7005708A70054080A168A110A240A12E4
:1006D8008A1183120313280883160313AC008312AC
:1006E8000313270883160313AB002B088312031385
:1006F800D700831603132C0883120313D800D901DB
:10070800DA01570883160313A7078312031358083F
:1007180003110318013E0319942B83160313A8072A
:1007280083120313590803110318013E03199F2B61
:1007380083160313A907831203135A080311031816
:10074800013E0319AA2B83160313AA078312031366
:1007580083160313831203135108D7005708A70001
:1007680055080A168A110A240A128A1183120313D9
:10077800280883160313AC00831203132708831673
:100788000313AB002B0883120313D700831603133C
:100798002C0883120313D800D901DA01083003109A
:1007A800D70DD80DD90DDA0DFF3E031DD32B5708F1
:1007B80083160313A707831203135808031103189A
:1007C800013E0319EA2B83160313A80783120313A8
:1007D800590803110318013E0319F52B8316031357
:1007E800A907831203135A0803110318013E0319BA
:1007F800002C83160313AA0783120313831603130B
:10080800220883120313D7008316031323088312C5
:100818000313D80083160313240883120313D90083
:1008280083160313250883120313DA001830031004
:10083800DA0CD90CD80CD70CFF3E031D1B2C57081B
:1008480083160313A7078312031358080311031809
:10085800013E0319322C83160313A80783120313CE
:10086800590803110318013E03193D2C831603137D
:10087800A907831203135A0803110318013E031929
:10088800482C83160313AA07831203138316031332
:10089800083083120313D700031083160313A20D25
:1008A800A30DA40DA50D83120313D70B502C83168B
:1008B80003132608210783120313D700D801D80D84
:1008C8005708823E83160313AB008312031358089C
:1008D8000318013EFF3E83160313AC00A02C013021
:1008E80083120313D700031083160313A70DA80D53
:1008F800A90DAA0D83120313D70B772C83160313A4
:10090800A51F872C882C892C2714013083120313E8
:10091800D700031083160313A20DA30DA40DA50D74
:1009280083120313D70B8D2CFF3083160313AB07E9
:100938000318AC0AFF30AC07A91FA32CA42C732CF6
:10094800A101A51FA82CA92CD72CFF3022058312A2
:100958000313D700FF3083160313230583120313F1
:10096800D800FF3083160313240583120313D9001C
:100978007F3083160313250583120313DA005A0800
:100988005904580457040319CA2CCB2CD02C8316AD
:100998000313A101A10AD72C83160313271CD52CF6
:1009A800D62CD72CCB2C21080319DB2CDC2C292D99
:1009B8000130A707003003180130A80700300318DA
:1009C8000130A907003003180130AA072A1CED2CB2
:1009D800EE2C292D270883120313D700831603133F
:1009E800280883120313D8008316031329088312D7
:1009F8000313D900831603132A0883120313DA009A
:100A08000130DB005A0DDA0CD90CD80CD70CDB0BF3
:100A1800062D5A0883160313AA00831203135908D4
:100A280083160313A90083120313580883160313AC
:100A3800A80083120313570883160313A700013075
:100A4800AB070318AC0A0030AC072C08803AFF004B
:100A580080307F02031D322DFF302B02031C352D01
:100A6800362D412D7F3083160313AA008030A9004C
:100A78000030A8000030A7007E2D831603132C0831
:100A8800803AFF0080307F02031D4C2D01302B027D
:100A980003184F2D502D5C2D003083160313AA0028
:100AA8000030A9000030A8000030A700A0017E2D6A
:100AB800831603132B0883120313D70057088316D2
:100AC8000313A600FF30A705FF30A8057F30A9054E
:100AD8000030AA05261C712D722D732DA917260822
:100AE80083120313D7000310570CD8005808831635
:100AF8000313AA00200883120313D700570883168C
:100B08000313AA042A0883120313D20083160313BB
:100B1800290883120313D1008316031328088312AC
:100B28000313D00083160313270883120313CF007F
:100B3800080000300A168A1133240A128A11831217
:100B48000313280883160313D000831203132708FE
:100B580083160313CF00493083120313BC002930D6
:100B6800BB00D530BA008030B900831603134F0894
:100B780083120313A7008316031350088312031369
:100B8800A8000030A81BFF30A900AA0001300A16EF
:100B98008A117A260A128A11831203132A08B800C6
:100BA8002908B7002808B6002708B5000A128A15D0
:100BB800BD220A128A1183120313380883160313FD
:100BC800B40083120313370883160313B300831288
:100BD8000313360883160313B20083120313350870
:100BE80083160313B100C430B0002A30AF000030C0
:100BF800AE000030AD000A128A159A240A128A1132
:100C0800831603133008BC002F08BB002E08BA0057
:100C18002D08B9000A128A117F270A128A11831631
:100C280003133C08E4003B08E3003A08E2003908F3
:100C3800E100640883120313AA00831603136308F0
:100C480083120313A9008316031362088312031384
:100C5800A80083160313610883120313A700013049
:100C68000A168A117A260A128A11831203132A088D
:100C780083160313DA008312031329088316031358
:100C8800D90083120313280883160313D80083128C
:100C98000313270883160313D7005A08CC005908F2
:100CA800CB005808CA005708C9000A128A155921EA
:100CB8000A128A11831603134C08EA004B08E9004C
:100CC8004A08E8004908E700443083120313B800D3
:100CD8002A30B7000030B6000030B5008316031381
:100CE800640883120313AA0083160313630883128C
:100CF8000313A90083160313620883120313A800C1
:100D080083160313610883120313A70001300A1620
:100D18008A117A260A128A11831203132A08BC0040
:100D28002908BB002808BA002708B9000A128A1542
:100D3800BD220A128A11831203133808831603137B
:100D4800DA0083120313370883160313D9008312BA
:100D58000313360883160313D800831203133508C8
:100D680083160313D7005A08CC005908CB0058083B
:100D7800CA005708C9000A128A1559210A128A118D
:100D8800831603134C08D6004B08D5004A08D40034
:100D98004908D3003B30B0003230AF000330AE001A
:100DA800AF30AD00393083120313D2008430D10044
:100DB800BB30D0002C30CF008316031356088312A3
:100DC8000313D60083160313550883120313D500A3
:100DD80083160313540883120313D40083160313D2
:100DE800530883120313D3000A128A113E200A12F1
:100DF8008A1183120313520883160313B400831253
:100E08000313510883160313B30083120313500806
:100E180083160313B200831203134F0883160313B8
:100E2800B1000A128A159A240A128A11831603132A
:100E38003008EA002F08E9002E08E8002D08E7002E
:100E4800C330B0008830AF009330AE003330AD000F
:100E58006A0883120313B800831603136908831200
:100E68000313B70083160313680883120313B6002D
:100E780083160313670883120313B5003F30BC00C1
:100E88008030BB000030BA000030B9000A128A1561
:100E9800BD220A128A11831203133808831603131A
:100EA800B40083120313370883160313B3008312A5
:100EB8000313360883160313B2008312031335088D
:100EC80083160313B1000A128A159A240A128A118A
:100ED800831603133008EA002F08E9002E08E800FB
:100EE8002D08E7006A08D2006908D1006808D00018
:100EF8006708CF0008000310831603133B0D3C0D51
:100F0800BD003D08C3004308031D8B2F8C2F952F70
:100F18000030BC000030BB000030BA000030B9001F
:100F2800FA2F3908BD003A08BE003B08BF003C084C
:100F3800C0001F300310C00CBF0CBE0CBD0CFF3E20
:100F4800031D9E2F3D08C1004108C200BB17FF309A
:100F5800B905FF30BA05FF30BB050030BC05963037
:100F6800C302C31FB82FB92FD32F4308803A973E27
:100F78000318BF2FC02FC12F8C2F01300310BC0CBA
:100F8800BB0CBA0CB90CFF3E031DC22F0130BD00CB
:100F98003D08C307031DD12FD22FC12FEA2F2030C0
:100FA8004302031CD82FD92FE52F8C2F0130BD0009
:100FB8000310B90DBA0DBB0DBC0DBD0BDC2F0130F4
:100FC800C3024308031DE92FEA2FDA2F4208031949
:100FD800EE2FEF2FFA2FB909BA09BB09BC09B90AD4
:0E0FE8000319BA0A0319BB0A0319BC0A080050
:101008000130831603138500860187018801811248
:1010180081110115811001146430831203138100BA
:101028000B118B161F110C13831603130C178B1738
:101038000B178130831203139F008030831603132C
:101048009F0000300A168A1133240A128A15831267
:101058000313280883160313EC00831203132708CD
:1010680083160313EB006C08D0006B08CF000A123C
:101078008A119D250A128A15831603135208E00067
:101088005108DF005008DE004F08DD006008BC0092
:101098005F08BB005E08BA005D08B9000A128A1131
:1010A8007F270A128A15831603133A08EE003908B7
:1010B800ED00823083160313DC00DD30DB00DB0B30
:1010C8006328DC0B632825280A128A1112280B1DB5
:1010D8006E286F28E82864308100831603136E0891
:1010E800803AFF0080307F02031D7C2850306D025B
:1010F80003187F2880288F28383083120313A00014
:101108002008E5003F30A0002008E6003E30A0009F
:101118002008E700C528831603136E08803AFF00ED
:1011280080307F02031D9A286F306D02031C9D28B2
:101138009E28AD28763083120313A0002008E5000E
:101148007630A0002008E6007630A0002008E700EE
:10115800C5287B08903E8400831700088312031378
:10116800A0002008E5007A08903E84000008A0004E
:101178002008E6007908903E84000008A0002008B6
:10118800E7007D03031DC928CA28CE280E30870032
:101198006508860002307D06031DD328D428D82888
:1011A8000D3087006608860003307D06031DDD28A4
:1011B800DE28E3280B30870067088600FD01013030
:1011C800A0002008FD070B110C1FEB28EC284D2967
:1011D800831603136D0883120313A0002008FC0074
:1011E8006430F0000030F1007C08A000A101200864
:1011F800F2002108F3000A168A116F250A128A15CF
:10120800700883120313A2002208FB006430F00068
:101218000030F1007C08A000A1012008F20021089C
:10122800F3000A168A11BA240A128A157008831262
:101238000313A2002208FC000A30F0000030F1007D
:101248007C08A000A1012008F2002108F3000A167A
:101258008A116F250A128A15700883120313A200D7
:101268002208FA000A30F0000030F1007C08A000E3
:10127800A1012008F2002108F3000A168A11BA24F5
:101288000A128A15700883120313A2002208F900B3
:101298000C138B132608FF0025088A0024088400F5
:1012A800230E8300FE0E7E0E0900831603134C08DE
:1012B80083120313AA00831603134B088312031324
:1012C800A900831603134A0883120313A800831680
:1012D8000313490883120313A7000030AE0000303F
:1012E800AD000030AC000030AB000A168A11D625DC
:1012F8000A128A1503188129822991292130831617
:101308000313E5000030E6000030CC000030CB00CD
:101318000030CA000030C900BC2A831603134C08E9
:1013280083120313AA00831603134B0883120313B3
:10133800A900831603134A0883120313A80083160F
:101348000313490883120313A7000030AE000030CE
:10135800AD000030AC000030AB000A168A116A24D8
:101368000A128A15031CB929BA29C92922308316F9
:101378000313E5000030E6000030CC000030CB005D
:101388000030CA000030C900BC2ABF3083160313DE
:10139800B0008030AF000030AE000030AD0040300B
:1013A80083120313D2000030D1000030D000003087
:1013B800CF00CD30E4006408B700831603134C084F
:1013C80083120313B600831603134B088312031307
:1013D800B500831603134A0883120313B400831657
:1013E8000313490883120313B3000A168A1113253D
:1013F8000A128A15831203133608D6003508D50059
:101408003408D4003308D3000A128A113E200A1285
:101418008A1583120313520883160313B400831228
:101428000313510883160313B300831203135008E0
:1014380083160313B200831203134F088316031392
:10144800B1000A128A159A240A128A158316031300
:101458003008CC002F08CB002E08CA002D08C90080
:10146800FF30CD070318CE0AFF30CE074C08BC006A
:101478004B08BB004A08BA004908B900013083127A
:101488000313E400640883160313BD000830BE008C
:101498000030BF000A168A1136270A128A158316E9
:1014A80003133C08CC003B08CB003A08CA003908B3
:1014B800C9004C08B0004B08AF004A08AE00490804
:1014C800AD003F3083120313D2003130D1007230A7
:1014D800D0001830CF00831603134D08831203136E
:1014E800A700831603134E0883120313A8000030C5
:1014F800A81BFF30A900AA0001300A168A117A2613
:101508000A128A15831203132A08D6002908D5005F
:101518002808D4002708D3000A128A113E200A128C
:101528008A1583120313520883160313B400831217
:101538000313510883160313B300831203135008CF
:1015480083160313B200831203134F088316031381
:10155800B1000A128A159A240A128A1583160313EF
:101568003008CC002F08CB002E08CA002D08C9006F
:101578000800831203133C088039BD003D08C600EB
:101588003C08BD003D07BE003E08CD00BB1FCD2A6C
:10159800CE2ACF2A4D144D080319D32AD42AE42A77
:1015A8004D0A031DD82AD92AE12A0030BC00003090
:1015B800BB000030BA000030B900BB17BC01EC2AF0
:1015C8000030BC000030BB000030BA000030B90069
:1015D80038088039BD003D08C6063808BD003D07FB
:1015E800BE003E08CE00B71FFA2AFB2AFC2A4E147A
:1015F8004E080319002B012B112B4E0A031D052B36
:10160800062B0E2B0030B8000030B7000030B600B3
:101618000030B500B717B801192B0030B8000030FA
:10162800B7000030B6000030B5003808370436047B
:101638003504031D202B212B3A2B0030BC00003031
:10164800BB000030BA000030B9008030BB047F30E6
:10165800BC044608BD003D08BC043C08B8003B0873
:10166800B7003A08B6003908B500992C4D08031D93
:101678003E2B3F2B482B0030B8000030B70000301D
:10168800B6000030B500992C4D08BD00BE013E08DB
:10169800C0004E083D02BF00031CC0033F087F3E48
:1016A800C70040080318013E003EC8003C08C500BA
:1016B8003B08C4003A08C3003908C2000030BC0027
:1016C8000030BB000030BA000030B9000030CC0058
:1016D8000030CB000030CA000030C900CE01BE2B5C
:1016E8004E080319782B792B992B0130BD00031074
:1016F800C20DC30DC40DC50DBD0B7B2B0130BD0044
:101708000310B90DBA0DBB0DBC0DBD0B842BCC1F3E
:101718008E2B8F2B902B39140130BD000310C90D6F
:10172800CA0DCB0DCC0DBD0B922B38084502031DFD
:10173800A72B37084402031DA72B36084302031DB5
:10174800A72B35084202031CAA2BAB2BBA2B4C172C
:101758003508C2023608031C360FC3023708031CBB
:10176800370FC4023808031C380FC5020130BD000A
:101778003D08CE071A304E02031CC32BC42B742B12
:1017880045084404430442040319CB2BCC2BEB2B10
:101798004914EB2B0130BD000310B90DBA0DBB0D78
:1017A800BC0DBD0BD02BCC1FDA2BDB2BDC2B39145B
:1017B8000130BD000310C90DCA0DCB0DCC0DBD0BFA
:1017C800DE2BFF30C7070318C80AFF30C807BB1F46
:1017D800EE2BEF2BCE2BCE01CC1FF32BF42B102CA2
:1017E800FF304905BD00FF304A05BE00FF304B05FC
:1017F800BF007F304C05C00040083F043E043D0454
:101808000319072C082C0B2CCE01CE0A102C391CDE
:101818000E2C0F2C102C082C4E080319142C152CE8
:10182800462C0130B907003003180130BA070030E0
:1018380003180130BB07003003180130BC073C1CFB
:10184800262C272C462C3908BD003A08BE003B0838
:10185800BF003C08C0000130C100400DC00CBF0CE7
:10186800BE0CBD0CC10B312C4008BC003F08BB00AE
:101878003E08BA003D08B9000130C7070318C80A76
:101888000030C8074808803AFF0080307F02031DF7
:101898004F2CFF304702031C522C532C612CFF3075
:1018A80083120313C7000030C8000030BC000030AA
:1018B800BB000030BA000030B90083120313480897
:1018C800803AFF0080307F02031D6C2C01304702F4
:1018D80003186F2C702C7D2C83120313C701C801C9
:1018E8000030BC000030BB000030BA000030B90046
:1018F800C601831203134708BD003D08CD004D1CE7
:10190800862C872C892CBB178D2C7F30BD003D0879
:10191800BB054D08BD0003103D0CBE003E08BC00D1
:101928004608BD003D08BC04312B0800831603138C
:101938003008803983120313DC005C088316031314
:10194800B500300883120313DC005C07DD005D0876
:1019580083160313B700AF1FB22CB32CB42C371463
:1019680037080319B82CB92CC92C370A031DBD2C0C
:10197800BE2CC62C0030B0000030AF000030AE00E6
:101988000030AD00AF17B001D12C0030B0000030EE
:10199800AF000030AE000030AD003408803983124B
:1019A8000313DC005C0883160313B60036083506FB
:1019B8000319DF2CE02CE12C3517340883120313AC
:1019C800DC005C07DD005D0883160313B600B31F57
:1019D800EE2CEF2CF02C361436080319F42CF52CC9
:1019E800052D360A031DF92CFA2C022D0030B400FF
:1019F8000030B3000030B2000030B100B317B401BA
:101A08000D2D0030B4000030B3000030B2000030BB
:101A1800B100370836020318122D132D972D351FE4
:101A2800162D172D1F2D803083120313DC005C0840
:101A380083160313B506370883120313DC005C080A
:101A480083160313B800360883120313DC005C08FE
:101A580083160313B700380883120313DC005C08ED
:101A680083160313B6002D0883120313DC005C08E9
:101A780083160313B800310883120313DC005C08D3
:101A880083160313AD00380883120313DC005C08C7
:101A980083160313B1002E0883120313DC005C08BD
:101AA80083160313B800320883120313DC005C08A2
:101AB80083160313AE00380883120313DC005C0896
:101AC80083160313B2002F0883120313DC005C088B
:101AD80083160313B800330883120313DC005C0871
:101AE80083160313AF00380883120313DC005C0865
:101AF80083160313B300300883120313DC005C0859
:101B080083160313B800340883120313DC005C083F
:101B180083160313B000380883120313DC005C0833
:101B280083160313B400B801360883120313DC00CC
:101B3800DD015D08DF0083160313370883120313E2
:101B48005C02DE00031CDF035F08803AFF00803080
:101B58007F02031DB12D1A305E02031CB42DB52D72
:101B6800062E8316031330082F042E042D04031D9C
:101B7800BE2DC02D0130C12D003083120313DC00AF
:101B88005C0883160313B8000030B0000030AF00C3
:101B98000030AE000030AD00360883120313DC00BD
:101BA8005C0883160313B7000E2E381CDC2DDD2DC0
:101BB800EA2D380883120313DC0003105C0C01388B
:101BC800DD005D0883160313B800EC2D0310B80C74
:101BD8002D1CEF2DF02DF12DB817013083120313B2
:101BE800DC0083160313300DB00CAF0CAE0CAD0C3B
:101BF80083120313DC0BF52D0130DC005C0883161F
:101C08000313B7078316031336083702031C0D2E78
:101C18000E2ED92D351B112E122E692E3708031DB5
:101C2800162E172E202E0030B0000030AF000030E6
:101C3800AE000030AD00FF2F3108AD0732080311A8
:101C48000318013E0319292EAE07330803110318A0
:101C5800013E0319302EAF07340803110318013E63
:101C68000319372EB007301C3A2E3B2E5D2F381C37
:101C78003E2E3F2E4C2E380883120313DC0003102F
:101C88005C0C0138DD005D0883160313B8004E2E86
:101C98000310B80C2D1C512E522E532EB81701309C
:101CA80083120313DC0083160313300DB00CAF0C42
:101CB800AE0CAD0C83120313DC0B572E0130DC0085
:101CC8005C0883160313B7075D2F3008803AFF00BE
:101CD8003408803A7F02031D7B2E33082F02031D30
:101CE8007B2E32082E02031D7B2E31082D0203188D
:101CF8007E2E7F2E0F2FFF3083120313DC00FF3060
:101D0800DD00FF30DE00FF30DF00831603133108EB
:101D180083120313E000831603133208831203139C
:101D2800E10083160313330883120313E2008316BA
:101D38000313340883120313E300831603132D08D7
:101D480083120313E002831603132E08031C2E0FBD
:101D5800AE2EB12E83120313E102831603132F084C
:101D6800031C2F0FB82EBB2E83120313E202831617
:101D780003133008031C300FC22EC52E8312031321
:101D8800E30283160313831203136008DC07610858
:101D98000318610FD02ED12EDD0762080318620FD9
:101DA800D62ED72EDE0763080318630ADF075F08FD
:101DB80083160313B000831203135E0883160313FC
:101DC800AF00831203135D0883160313AE0083125A
:101DD80003135C0883160313AD00803083120313CA
:101DE800DC005C0883160313B506B809B80A38087E
:101DF800031DFF2E002F1D2F0130AD0700300318E3
:101E08000130AE07003003180130AF070030031867
:101E18000130B0071D2F3108AD023208031C320F04
:101E2800AE023308031C330FAF023408031C340F0F
:101E3800B00230082F042E042D04031D242F252F53
:101E4800592F3808031D292F2A2F592F0030B00089
:101E58000030AF000030AE000030AD00FF2F013081
:101E680083120313DC00031083160313AD0DAE0DAC
:101E7800AF0DB00D83120313DC0B372F831603133A
:101E8800B81F472F482F492F2D14381C4C2F4D2F82
:101E9800502F0314B80D522F0310B80D370803192B
:101EA800562F572F592F0130B702AF1F5C2F5D2FC8
:101EB800332FB601B81F612F622F702F38087F3972
:101EC8000319672F682F6B2FB601B60A702F2D1CC8
:101ED8006E2F6F2F702F682F36080319742F752FE8
:101EE800C92F0130AD07003003180130AE070030AC
:101EF80003180130AF07003003180130B007301C59
:101F0800862F872FC92F2D0883120313DC00831611
:101F180003132E0883120313DD00831603132F08FF
:101F280083120313DE00831603133008831203138E
:101F3800DF000130E0005F0DDF0CDE0CDD0CDC0C97
:101F4800E00B9F2F5F0883160313B000831203135F
:101F58005E0883160313AF00831203135D0883160C
:101F68000313AE00831203135C0883160313AD003A
:101F7800370A0319C02FC12FC92F01308312031349
:101F8800DC005C0883160313B707370A0319CD2F43
:101F9800CE2FD32F3708031DD22FD32FE12F003098
:101FA800B0000030AF000030AE000030AD003708A0
:101FB800031DDF2FE02FE12FB501371CE42FE52F9C
:101FC800E72FAF17EF2F7F3083120313DC005C0875
:101FD80083160313AF05370883120313DC000310BD
:101FE8005C0CDD005D0883160313B000B51FFD2FE0
:101FF800FE2FFF2FB017080010308A000408840A4B
:10200800820700340034003400340034C434FF3410
:102018007F343F348034EF34FF34BE349034E134BD
:10202800A9343E34EC3482347634BE348234AD3450
:102038002B343E340E343C34C334BD348734D1346D
:0C20480013343D3441347834D334BB34BD
:1027DA003F3406345B344F3466346D347D34073409
:1027EA007F346F347E088A007F0882000A168A11B5
:1027FA00F7230A168A118000840A04087D06031941
:10280A000034FF0A0319FE0AFB2B83120313AF00DD
:10281A00AB01AC012708A900AA012908AD002A08C2
:10282A00AE002F1C192C1A2C202C2D08AB070318CC
:10283A00AC0A2E08AC0701300310AD0DAE0DFF3EF9
:10284A00031D212C0310AF0C2F08031D2D2C2E2C39
:10285A00162C2C08A8002B08A700080083120313C3
:10286A00AB0008302B02031C3B2C3C2C3F2CA7014D
:10287A00A801692CC530A90029089F052B08A900C1
:10288A0002300310A90DFF3E031D462C0310290D2B
:10289A00AA002A089F04033083120313AA00973060
:1028AA00A900A90B562CAA0B562C831203131F1529
:1028BA001F19602C612C5D2C1E08A80083160313B7
:1028CA001E0883120313A7000800003083120313A3
:1028DA002705AF0000302805B00080302905B10077
:1028EA007F302A05B2003208310430042F04031D58
:1028FA007F2C802C882C0030AA000030A9000030E0
:10290A00A8000030A70000302B05AF0000302C05CE
:10291A00B00080302D05B1007F302E05B20032089C
:10292A00310430042F04031D9B2C9C2CA42C003052
:10293A00AE000030AD000030AC000030AB002E0815
:10294A002A06031DB22C2D082906031DB22C2C08B9
:10295A002806031DB22C2B0827060319B52CB62C02
:10296A00B82C0310B92C03140800F601F31FBE2C6F
:10297A00BF2CC62CF209F309F20A0319F30AF6016D
:10298A00F60AF11FC92CCA2CCF2CF009F109F00A5A
:10299A000319F10A700871040319D42CD52C042DDB
:1029AA00F501F50AE32C01300310F00DF10DFF3E9D
:1029BA00031DD92C0130F4007408F507F11FE62C29
:1029CA00E72CD82C71087302031DED2C70087202D3
:1029DA00031CF02CF12CF72C7008F2027108031C6E
:1029EA00F303F30201300310F10CF00CFF3E031D58
:1029FA00F82C0130F502031D032D042DE72C76086F
:102A0A000319082D092D0E2DF209F309F20A0319EB
:102A1A00F30A7308F1007208F00008008312031326
:102A2A003608AA003508A9003408A8003308A70008
:102A3A000030AE000030AD000030AC000030AB001A
:102A4A000A168A116A240A168A11031C2D2D2E2DA4
:102A5A003F2D831203133708840083138001840AED
:102A6A0080010030B6000030B5000030B4000030FC
:102A7A00B3006E2D8312031336087F39B800B901EB
:102A8A000310B80DB90D3708840038088313800085
:102A9A00840A39088000350D350D0139B800B901AD
:102AAA003708840038088004840A39088004370803
:102ABA00840082308007840F00080318000AFF0090
:102ACA00FF307F0780008403360880393F38B6001C
:102ADA00B5130800F601F11F732D742D7B2DF00933
:102AEA00F109F00A0319F10AF601F60AF31F7E2D1D
:102AFA007F2D882DF209F309F20A0319F30A01302E
:102B0A00F4007408F606F701F80170087104031955
:102B1A008F2D902DC72DF501F50A9E2D013003103A
:102B2A00F00DF10DFF3E031D942D0130F4007408E1
:102B3A00F507F11FA12DA22D932D01300310F70DDA
:102B4A00F80DFF3E031DA32D71087302031DAF2D5F
:102B5A0070087202031CB22DB32DBA2D7008F2024E
:102B6A007108031CF303F302771401300310F10C0C
:102B7A00F00CFF3E031DBB2D0130F502031DC62DCF
:102B8A00C72DA22D76080319CB2DCC2DD12DF709EF
:102B9A00F809F70A0319F80A7808F1007708F0002B
:102BAA0008000030831203132705AF000030280500
:102BBA00B00080302905B1007F302A05B200320802
:102BCA00310430042F04031DEB2DEC2DF42D0030BD
:102BDA00AA000030A9000030A8000030A700003089
:102BEA002B05AF0000302C05B00080302D05B10058
:102BFA007F302E05B2003208310430042F04031D41
:102C0A00072E082E102E0030AE000030AD00003026
:102C1A00AC000030AB00AA1F132E142E382E003041
:102C2A00AF000030B0000030B1008030B200270899
:102C3A00AF022808031C280F232E242EB0022908CD
:102C4A00031C290F292E2A2EB1022A08031C2A0F37
:102C5A002F2E302EB2023208AA003108A9003008FD
:102C6A00A8002F08A700AE1F3B2E3C2E602E003076
:102C7A00AF000030B0000030B1008030B2002B0845
:102C8A00AF022C08031C2C0F4B2E4C2EB0022D0821
:102C9A00031C2D0F512E522EB1022E08031C2E0F8B
:102CAA00572E582EB2023208AE003108AD00300855
:102CBA00AC002F08AB008030AA068030AE062E0882
:102CCA002A02031D722E2D082902031D722E2C08BA
:102CDA002802031D722E2B0827020318752E762E42
:102CEA00782E0310792E0314080083120313AF0001
:102CFA002F080319812E822E962EAA1F852E862E24
:102D0A00962E2709B1002809B2002909B3002A0919
:102D1A00B400B10A0319B20A0319B30A0319B40AAF
:102D2A009E2E2A08B4002908B3002808B2002708F2
:102D3A00B1002A08290428042704031DA52EA62E5B
:102D4A00AF2E0030AA000030A9000030A8000030E1
:102D5A00A700352F9630AB002B08B000C12E0130EA
:102D6A00AB002B08B00701300310B40CB30CB20C43
:102D7A00B10CFF3E031DB92EFE303405031DC62ECD
:102D8A00C72EB42EE32E0130AB002B08B00701305A
:102D9A00B107003003180130B207003003180130C0
:102DAA00B307003003180130B40701300310B40C24
:102DBA00B30CB20CB10CFF3E031DDB2EFF30340501
:102DCA00031DE82EE92EC82EF52E0130B00201307F
:102DDA00AB000310B10DB20DB30DB40DAB0BEE2E5B
:102DEA00B31BF82EF92EFF2E023030020318FE2EE6
:102DFA00FF2EEA2E3018022F032F0B2FFF30B105BA
:102E0A00FF30B2057F30B305FF30B4050310B00CB4
:102E1A003008AB00AC01AD01AE0118300310AB0DA8
:102E2A00AC0DAD0DAE0DFF3E031D132F2B08B104E3
:102E3A002C08B2042D08B3042E08B4042F08031971
:102E4A00272F282F2D2FAA1F2B2F2C2F2D2FB417CA
:102E5A003408AA003308A9003208A8003108A700DC
:102E6A000800831603133E08C00001300310C00D8A
:102E7A00FF3E031D3B2F0310400D3D0784000A1639
:102E8A008A1100200A168A11C1000A168A11002026
:102E9A000A168A11C2000A168A1100200A168A1115
:102EAA00C3000A168A1100200A168A11C4004408AF
:102EBA00C8004308C7004208C6004108C500F12FF0
:102ECA00FF30BE070318BF0AFF30BF073E08C00025
:102EDA0001300310C00DFF3E031D6E2F0310400D7D
:102EEA003D0784000A168A1100200A168A11C100B9
:102EFA000A168A1100200A168A11C2000A168A11B5
:102F0A0000200A168A11C3000A168A1100200A161E
:102F1A008A11C4004408B0004308AF004208AE005A
:102F2A004108AD00480883120313D2008316031325
:102F3A00470883120313D10083160313460883122A
:102F4A000313D00083160313450883120313CF001B
:102F5A00831603133C0883120313D6008316031344
:102F6A003B0883120313D500831603133A0883120E
:102F7A000313D40083160313390883120313D300EF
:102F8A000A128A113E200A168A1183120313520862
:102F9A0083160313B4008312031351088316031311
:102FAA00B30083120313500883160313B20083126B
:102FBA0003134F0883160313B1000A128A159A24C1
:102FCA000A168A11831603133008C8002F08C7008F
:102FDA002E08C6002D08C5003E083F04031DF62F23
:102FEA00F72F652F4808BC004708BB004608BA00FF
:062FFA004508B9000800C3
:08400000FF3FFF3FFF3FFF3FC0
:02400E00FA3F77
:00000001FF
